{
  "_format": "hh-sol-artifact-1",
  "contractName": "SubscriptionManagement",
  "sourceName": "contracts/SubscriptionManager.sol",
  "abi": [
    {
      "inputs": [
        {
          "internalType": "address",
          "name": "_tokenAddress",
          "type": "address"
        }
      ],
      "stateMutability": "nonpayable",
      "type": "constructor"
    },
    {
      "anonymous": false,
      "inputs": [
        {
          "indexed": true,
          "internalType": "address",
          "name": "provider",
          "type": "address"
        },
        {
          "indexed": false,
          "internalType": "uint256",
          "name": "serviceID",
          "type": "uint256"
        }
      ],
      "name": "ServiceListed",
      "type": "event"
    },
    {
      "anonymous": false,
      "inputs": [
        {
          "indexed": true,
          "internalType": "address",
          "name": "user",
          "type": "address"
        },
        {
          "indexed": false,
          "internalType": "uint256",
          "name": "serviceID",
          "type": "uint256"
        },
        {
          "indexed": false,
          "internalType": "uint256",
          "name": "subscriptionID",
          "type": "uint256"
        }
      ],
      "name": "Subscribed",
      "type": "event"
    },
    {
      "anonymous": false,
      "inputs": [
        {
          "indexed": true,
          "internalType": "address",
          "name": "user",
          "type": "address"
        },
        {
          "indexed": false,
          "internalType": "uint256",
          "name": "subscriptionID",
          "type": "uint256"
        }
      ],
      "name": "SubscriptionCanceled",
      "type": "event"
    },
    {
      "inputs": [
        {
          "internalType": "uint256",
          "name": "_subscriptionID",
          "type": "uint256"
        }
      ],
      "name": "cancelSubscription",
      "outputs": [],
      "stateMutability": "nonpayable",
      "type": "function"
    },
    {
      "inputs": [],
      "name": "listService",
      "outputs": [],
      "stateMutability": "nonpayable",
      "type": "function"
    },
    {
      "inputs": [],
      "name": "nextServiceID",
      "outputs": [
        {
          "internalType": "uint256",
          "name": "",
          "type": "uint256"
        }
      ],
      "stateMutability": "view",
      "type": "function"
    },
    {
      "inputs": [],
      "name": "nextSubscriptionID",
      "outputs": [
        {
          "internalType": "uint256",
          "name": "",
          "type": "uint256"
        }
      ],
      "stateMutability": "view",
      "type": "function"
    },
    {
      "inputs": [
        {
          "internalType": "uint256",
          "name": "",
          "type": "uint256"
        }
      ],
      "name": "serviceOwners",
      "outputs": [
        {
          "internalType": "address",
          "name": "",
          "type": "address"
        }
      ],
      "stateMutability": "view",
      "type": "function"
    },
    {
      "inputs": [
        {
          "internalType": "uint256",
          "name": "_serviceID",
          "type": "uint256"
        },
        {
          "internalType": "uint256",
          "name": "_duration",
          "type": "uint256"
        }
      ],
      "name": "subscribe",
      "outputs": [],
      "stateMutability": "nonpayable",
      "type": "function"
    },
    {
      "inputs": [
        {
          "internalType": "uint256",
          "name": "",
          "type": "uint256"
        }
      ],
      "name": "subscriptions",
      "outputs": [
        {
          "internalType": "uint256",
          "name": "subscriptionID",
          "type": "uint256"
        },
        {
          "internalType": "uint256",
          "name": "serviceID",
          "type": "uint256"
        },
        {
          "internalType": "address",
          "name": "user",
          "type": "address"
        },
        {
          "internalType": "uint256",
          "name": "expiryDate",
          "type": "uint256"
        },
        {
          "internalType": "string",
          "name": "state",
          "type": "string"
        }
      ],
      "stateMutability": "view",
      "type": "function"
    },
    {
      "inputs": [],
      "name": "token",
      "outputs": [
        {
          "internalType": "contract IERC20",
          "name": "",
          "type": "address"
        }
      ],
      "stateMutability": "view",
      "type": "function"
    },
    {
      "inputs": [
        {
          "internalType": "address",
          "name": "",
          "type": "address"
        }
      ],
      "name": "verifiedProviders",
      "outputs": [
        {
          "internalType": "bool",
          "name": "",
          "type": "bool"
        }
      ],
      "stateMutability": "view",
      "type": "function"
    },
    {
      "inputs": [
        {
          "internalType": "address",
          "name": "",
          "type": "address"
        }
      ],
      "name": "verifiedUsers",
      "outputs": [
        {
          "internalType": "bool",
          "name": "",
          "type": "bool"
        }
      ],
      "stateMutability": "view",
      "type": "function"
    }
  ],
  "bytecode": "0x60806040526000600155600060025534801561001a57600080fd5b506040516117d63803806117d6833981810160405281019061003c91906100e5565b806000806101000a81548173ffffffffffffffffffffffffffffffffffffffff021916908373ffffffffffffffffffffffffffffffffffffffff16021790555050610112565b600080fd5b600073ffffffffffffffffffffffffffffffffffffffff82169050919050565b60006100b282610087565b9050919050565b6100c2816100a7565b81146100cd57600080fd5b50565b6000815190506100df816100b9565b92915050565b6000602082840312156100fb576100fa610082565b5b6000610109848285016100d0565b91505092915050565b6116b5806101216000396000f3fe608060405234801561001057600080fd5b506004361061009e5760003560e01c80637cde3359116100665780637cde33591461014b578063843708131461017b578063e35fe36614610197578063ee07e192146101c7578063fc0c546a146101e55761009e565b806321235083146100a357806323728281146100bf5780632d5bbf60146100dd578063300870511461011157806331297ac114610141575b600080fd5b6100bd60048036038101906100b89190610b6c565b610203565b005b6100c76103db565b6040516100d49190610ba8565b60405180910390f35b6100f760048036038101906100f29190610b6c565b6103e1565b604051610108959493929190610c94565b60405180910390f35b61012b60048036038101906101269190610b6c565b6104bf565b6040516101389190610cee565b60405180910390f35b6101496104f2565b005b61016560048036038101906101609190610d35565b61063c565b6040516101729190610d7d565b60405180910390f35b61019560048036038101906101909190610d98565b61065c565b005b6101b160048036038101906101ac9190610d35565b610ae7565b6040516101be9190610d7d565b60405180910390f35b6101cf610b07565b6040516101dc9190610ba8565b60405180910390f35b6101ed610b0d565b6040516101fa9190610e37565b60405180910390f35b60006003600083815260200190815260200160002090503373ffffffffffffffffffffffffffffffffffffffff168160020160009054906101000a900473ffffffffffffffffffffffffffffffffffffffff1673ffffffffffffffffffffffffffffffffffffffff16146102ac576040517f08c379a00000000000000000000000000000000000000000000000000000000081526004016102a390610e9e565b60405180910390fd5b6040518060400160405280600681526020017f616374697665000000000000000000000000000000000000000000000000000081525080519060200120816004016040516102fa9190610fc1565b604051809103902014610342576040517f08c379a000000000000000000000000000000000000000000000000000000000815260040161033990611024565b60405180910390fd5b6040518060400160405280600881526020017f63616e63656c65640000000000000000000000000000000000000000000000008152508160040190816103889190611215565b503373ffffffffffffffffffffffffffffffffffffffff167f75703d723c382baf9126c0b27310a322412b9e2bbaf52e74afcf50b107a7905f836040516103cf9190610ba8565b60405180910390a25050565b60025481565b60036020528060005260406000206000915090508060000154908060010154908060020160009054906101000a900473ffffffffffffffffffffffffffffffffffffffff169080600301549080600401805461043c90610eed565b80601f016020809104026020016040519081016040528092919081815260200182805461046890610eed565b80156104b55780601f1061048a576101008083540402835291602001916104b5565b820191906000526020600020905b81548152906001019060200180831161049857829003601f168201915b5050505050905085565b60066020528060005260406000206000915054906101000a900473ffffffffffffffffffffffffffffffffffffffff1681565b600560003373ffffffffffffffffffffffffffffffffffffffff1673ffffffffffffffffffffffffffffffffffffffff16815260200190815260200160002060009054906101000a900460ff1661057e576040517f08c379a000000000000000000000000000000000000000000000000000000000815260040161057590611333565b60405180910390fd5b3360066000600254815260200190815260200160002060006101000a81548173ffffffffffffffffffffffffffffffffffffffff021916908373ffffffffffffffffffffffffffffffffffffffff1602179055503373ffffffffffffffffffffffffffffffffffffffff167ff057f76d72823a32740850009685a7ddd5e075ed4ef3c627a513330fbb9d37fc60025460405161061a9190610ba8565b60405180910390a26002600081548092919061063590611382565b9190505550565b60056020528060005260406000206000915054906101000a900460ff1681565b600460003373ffffffffffffffffffffffffffffffffffffffff1673ffffffffffffffffffffffffffffffffffffffff16815260200190815260200160002060009054906101000a900460ff166106e8576040517f08c379a00000000000000000000000000000000000000000000000000000000081526004016106df90611416565b60405180910390fd5b600073ffffffffffffffffffffffffffffffffffffffff166006600084815260200190815260200160002060009054906101000a900473ffffffffffffffffffffffffffffffffffffffff1673ffffffffffffffffffffffffffffffffffffffff160361078a576040517f08c379a000000000000000000000000000000000000000000000000000000000815260040161078190611482565b60405180910390fd5b6000670de0b6b3a7640000826107a091906114a2565b90508060008054906101000a900473ffffffffffffffffffffffffffffffffffffffff1673ffffffffffffffffffffffffffffffffffffffff166370a08231336040518263ffffffff1660e01b81526004016107fc9190610cee565b602060405180830381865afa158015610819573d6000803e3d6000fd5b505050506040513d601f19601f8201168201806040525081019061083d91906114f9565b101561087e576040517f08c379a000000000000000000000000000000000000000000000000000000000815260040161087590611572565b60405180910390fd5b60008054906101000a900473ffffffffffffffffffffffffffffffffffffffff1673ffffffffffffffffffffffffffffffffffffffff166323b872dd336006600087815260200190815260200160002060009054906101000a900473ffffffffffffffffffffffffffffffffffffffff16846040518463ffffffff1660e01b815260040161090e93929190611592565b6020604051808303816000875af115801561092d573d6000803e3d6000fd5b505050506040513d601f19601f8201168201806040525081019061095191906115f5565b506000620151808361096391906114a2565b4261096e9190611622565b90506040518060a0016040528060015481526020018581526020013373ffffffffffffffffffffffffffffffffffffffff1681526020018281526020016040518060400160405280600681526020017f6163746976650000000000000000000000000000000000000000000000000000815250815250600360006001548152602001908152602001600020600082015181600001556020820151816001015560408201518160020160006101000a81548173ffffffffffffffffffffffffffffffffffffffff021916908373ffffffffffffffffffffffffffffffffffffffff160217905550606082015181600301556080820151816004019081610a739190611215565b509050503373ffffffffffffffffffffffffffffffffffffffff167ff94991dcbea6e8ac439cbc93bd9c62a4d39f04e0ad656df9a703f13552c2787f85600154604051610ac1929190611656565b60405180910390a260016000815480929190610adc90611382565b919050555050505050565b60046020528060005260406000206000915054906101000a900460ff1681565b60015481565b60008054906101000a900473ffffffffffffffffffffffffffffffffffffffff1681565b600080fd5b6000819050919050565b610b4981610b36565b8114610b5457600080fd5b50565b600081359050610b6681610b40565b92915050565b600060208284031215610b8257610b81610b31565b5b6000610b9084828501610b57565b91505092915050565b610ba281610b36565b82525050565b6000602082019050610bbd6000830184610b99565b92915050565b600073ffffffffffffffffffffffffffffffffffffffff82169050919050565b6000610bee82610bc3565b9050919050565b610bfe81610be3565b82525050565b600081519050919050565b600082825260208201905092915050565b60005b83811015610c3e578082015181840152602081019050610c23565b60008484015250505050565b6000601f19601f8301169050919050565b6000610c6682610c04565b610c708185610c0f565b9350610c80818560208601610c20565b610c8981610c4a565b840191505092915050565b600060a082019050610ca96000830188610b99565b610cb66020830187610b99565b610cc36040830186610bf5565b610cd06060830185610b99565b8181036080830152610ce28184610c5b565b90509695505050505050565b6000602082019050610d036000830184610bf5565b92915050565b610d1281610be3565b8114610d1d57600080fd5b50565b600081359050610d2f81610d09565b92915050565b600060208284031215610d4b57610d4a610b31565b5b6000610d5984828501610d20565b91505092915050565b60008115159050919050565b610d7781610d62565b82525050565b6000602082019050610d926000830184610d6e565b92915050565b60008060408385031215610daf57610dae610b31565b5b6000610dbd85828601610b57565b9250506020610dce85828601610b57565b9150509250929050565b6000819050919050565b6000610dfd610df8610df384610bc3565b610dd8565b610bc3565b9050919050565b6000610e0f82610de2565b9050919050565b6000610e2182610e04565b9050919050565b610e3181610e16565b82525050565b6000602082019050610e4c6000830184610e28565b92915050565b7f4e6f742074686520737562736372697074696f6e206f776e65722e0000000000600082015250565b6000610e88601b83610c0f565b9150610e9382610e52565b602082019050919050565b60006020820190508181036000830152610eb781610e7b565b9050919050565b7f4e487b7100000000000000000000000000000000000000000000000000000000600052602260045260246000fd5b60006002820490506001821680610f0557607f821691505b602082108103610f1857610f17610ebe565b5b50919050565b600081905092915050565b60008190508160005260206000209050919050565b60008154610f4b81610eed565b610f558186610f1e565b94506001821660008114610f705760018114610f8557610fb8565b60ff1983168652811515820286019350610fb8565b610f8e85610f29565b60005b83811015610fb057815481890152600182019150602081019050610f91565b838801955050505b50505092915050565b6000610fcd8284610f3e565b915081905092915050565b7f537562736372697074696f6e206e6f74206163746976652e0000000000000000600082015250565b600061100e601883610c0f565b915061101982610fd8565b602082019050919050565b6000602082019050818103600083015261103d81611001565b9050919050565b7f4e487b7100000000000000000000000000000000000000000000000000000000600052604160045260246000fd5b60008190508160005260206000209050919050565b60006020601f8301049050919050565b600082821b905092915050565b6000600883026110d57fffffffffffffffffffffffffffffffffffffffffffffffffffffffffffffffff82611098565b6110df8683611098565b95508019841693508086168417925050509392505050565b600061111261110d61110884610b36565b610dd8565b610b36565b9050919050565b6000819050919050565b61112c836110f7565b61114061113882611119565b8484546110a5565b825550505050565b600090565b611155611148565b611160818484611123565b505050565b5b818110156111845761117960008261114d565b600181019050611166565b5050565b601f8211156111c95761119a81611073565b6111a384611088565b810160208510156111b2578190505b6111c66111be85611088565b830182611165565b50505b505050565b600082821c905092915050565b60006111ec600019846008026111ce565b1980831691505092915050565b600061120583836111db565b9150826002028217905092915050565b61121e82610c04565b67ffffffffffffffff81111561123757611236611044565b5b6112418254610eed565b61124c828285611188565b600060209050601f83116001811461127f576000841561126d578287015190505b61127785826111f9565b8655506112df565b601f19841661128d86611073565b60005b828110156112b557848901518255600182019150602085019450602081019050611290565b868310156112d257848901516112ce601f8916826111db565b8355505b6001600288020188555050505b505050505050565b7f50726f7669646572206e6f742076657269666965642e00000000000000000000600082015250565b600061131d601683610c0f565b9150611328826112e7565b602082019050919050565b6000602082019050818103600083015261134c81611310565b9050919050565b7f4e487b7100000000000000000000000000000000000000000000000000000000600052601160045260246000fd5b600061138d82610b36565b91507fffffffffffffffffffffffffffffffffffffffffffffffffffffffffffffffff82036113bf576113be611353565b5b600182019050919050565b7f55736572206e6f742076657269666965642e0000000000000000000000000000600082015250565b6000611400601283610c0f565b915061140b826113ca565b602082019050919050565b6000602082019050818103600083015261142f816113f3565b9050919050565b7f5365727669636520646f6573206e6f742065786973742e000000000000000000600082015250565b600061146c601783610c0f565b915061147782611436565b602082019050919050565b6000602082019050818103600083015261149b8161145f565b9050919050565b60006114ad82610b36565b91506114b883610b36565b92508282026114c681610b36565b915082820484148315176114dd576114dc611353565b5b5092915050565b6000815190506114f381610b40565b92915050565b60006020828403121561150f5761150e610b31565b5b600061151d848285016114e4565b91505092915050565b7f496e73756666696369656e7420746f6b656e2062616c616e63652e0000000000600082015250565b600061155c601b83610c0f565b915061156782611526565b602082019050919050565b6000602082019050818103600083015261158b8161154f565b9050919050565b60006060820190506115a76000830186610bf5565b6115b46020830185610bf5565b6115c16040830184610b99565b949350505050565b6115d281610d62565b81146115dd57600080fd5b50565b6000815190506115ef816115c9565b92915050565b60006020828403121561160b5761160a610b31565b5b6000611619848285016115e0565b91505092915050565b600061162d82610b36565b915061163883610b36565b92508282019050808211156116505761164f611353565b5b92915050565b600060408201905061166b6000830185610b99565b6116786020830184610b99565b939250505056fea2646970667358221220594a4b6db88a407a717501c5bced1174eb39ab1bcd082f43fd6d6353a29faacb64736f6c634300081c0033",
  "linkReferences": {},
  "deployedLinkReferences": {}
}